S0100000434C4F434B3136412E7372656300
S11300000C942A000C9447000C9447000C9447006D
S11300100C94E1000C9447000C9447000C944700A6
S11300200C9447000C9447000C9447000C94470030
S11300300C9447000C9447000C9447000C94470020
S11300400C9447000C9447000C9447000C94470010
S11300500C94470011241FBECFE5D4E0DEBFCDBF12
S113006010E0A0E6B0E0EAE4F5E002C005900D92ED
S1130070A637B107D9F720E0A6E7B0E001C01D928A
S1130080AB37B207E1F70E94DB010C94A3020C9496
S11300900000919A95E89A95F1F7000092B39F7049
S11300A092BB92B38295807F892B82BB919885E81D
S11300B08A95F1F700000895CF93C82F611102C00B
S11300C0909801C0909A8C2F82958F700E9449005D
S11300D08C2F0E944900CF9108952FEF89EF90E073
S11300E0215080409040E1F700C0000083E00E946E
S11300F049008FE097E20197F1F700C0000083E028
S11301000E94490087EC90E00197F1F700C00000DD
S113011083E00E9449008FEC97E00197F1F700C05B
S1130120000082E00E9449008FEC97E00197F1F70C
S113013000C0000060E088E20E945C008FEC97E061
S11301400197F1F700C0000060E08CE00E945C00C1
S11301508FEC97E00197F1F700C0000060E086E0C3
S11301600E945C008FEC97E00197F1F700C000005B
S1130170089561E00E945C000895CF93DF93EC0141
S11301808881882331F021960E94B90089918111D8
S1130190FBCFDF91CF91089560E080680E945C00FE
S11301A0089560E080640E945C00089589B78F77A9
S11301B089BF82B5886082BD14BC85B5856085BD64
S11301C008951F920F920FB60F9211242F933F930D
S11301D04F935F936F937F938F939F93AF93BF934B
S11301E0EF93FF93809178008F5F809378008A303B
S11301F078F460E088E80E945C00809178004AE02E
S113020069E770E090E00E946E020E94BD000EC09B
S113021060E087E80E945C00809178004AE069E72A
S113022070E090E00E946E020E94BD008091780010
S11302308C33A1F51092780060E087E80E945C009E
S1130240809178004AE069E770E090E00E946E02D5
S11302500E94BD00809177008F5F809377008A3081
S113026078F460E085E80E945C00809177004AE0C1
S113027069E770E090E00E946E020E94BD000EC02B
S113028060E084E80E945C00809177004AE069E7BE
S113029070E090E00E946E020E94BD0080917700A1
S11302A08C33A1F51092770060E084E80E945C0032
S11302B0809177004AE069E770E090E00E946E0266
S11302C00E94BD00809176008F5F809376008A3013
S11302D078F460E082E80E945C00809176004AE055
S11302E069E770E090E00E946E020E94BD000EC0BB
S11302F060E081E80E945C00809176004AE069E752
S113030070E090E00E946E020E94BD008091760031
S1130310883171F410927800109277001092760070
S113032060E081E80E945C0089E690E00E94BD00E4
S113033080916000882399F060E083E80E945C006B
S113034082E790E00E94BD0060E086E80E945C00C5
S113035082E790E00E94BD001092600013C060E04C
S113036083E80E945C0084E790E00E94BD0060E0A6
S113037086E80E945C0084E790E00E94BD0081E072
S113038080936000FF91EF91BF91AF919F918F9106
S11303907F916F915F914F913F912F910F900FBE7D
S11303A00F901F9018958FEF81BB12BA1ABA8BB3B6
S11303B086608BBB08958FEF84BB0E94D3010E949B
S11303C06D000E94D60060E081E80E945C0089E62E
S11303D090E00E94BD008FE00E94D100C1E6D0E011
S11303E009E610E061E089910E945C00C017D10722
S11303F0C9F788E00E94CC0060E080E80E945C00BD
S113040061E082E00E945C0082B58770E9F789B7F9
S1130410806489BF7894C9992FC02FEF83EC99E049
S1130420215080409040E1F700C0000080917600A8
S11304308F5F80937600109278008A3078F460E0C1
S113044082E80E945C00809176004AE069E770E0EF
S113045090E00E946E020E94BD000EC060E081E840
S11304600E945C00809176004AE069E770E090E0C9
S11304700E946E020E94BD00CA99CDCF2FEF83EC7B
S113048099E0215080409040E1F700C00000809145
S113049077008F5F80937700109278008A3078F429
S11304A060E085E80E945C00809177004AE069E79B
S11304B070E090E00E946E020E94BD00ACCF60E04C
S11304C084E80E945C00809177004AE069E770E06C
S11304D090E00E946E020E94BD009DCFBB274A306F
S11304E031F4992322F4BDE2909581959F4F0C94A9
S11304F07A02BB27FB015527AA27880F991FAA1F39
S1130500A41710F0A41B83955051B9F7A05DAA332A
S113051008F0A95DA193009779F7B111B1931192F5
S1130520CB010C949302DC01FC01672F71917723BA
S1130530E1F7329704C07C916D9370836291AE179A
S10D0540BF07C8F30895F894FFCF35
S113054A01000E1517110E000030303A30303A30DF
S109055A300020003A000D
S9030000FC
